:020000040000fa
:080000000002040000000000f2
:020000040000fa
:04000800fa020000f8
:020000040000fa
:04000c00fa020000f4
:020000040000fa
:04001000fa020000f0
:020000040000fa
:04001400fa020000ec
:020000040000fa
:04001800fa020000e8
:020000040000fa
:04001c00fa020000e4
:020000040000fa
:04002000fa020000e0
:020000040000fa
:04002400fa020000dc
:020000040000fa
:04002800fa020000d8
:020000040000fa
:04002c00fa020000d4
:020000040000fa
:04003000fa020000d0
:020000040000fa
:04003400fa020000cc
:020000040000fa
:04003800fa020000c8
:020000040000fa
:04003c00fa020000c4
:020000040000fa
:04004000fa020000c0
:020000040000fa
:04004400fa020000bc
:020000040000fa
:04004800fa020000b8
:020000040000fa
:04004c00fa020000b4
:020000040000fa
:04005000fa020000b0
:020000040000fa
:04005400fa020000ac
:020000040000fa
:04005800fa020000a8
:020000040000fa
:04005c00fa020000a4
:020000040000fa
:04006000fa020000a0
:020000040000fa
:04006400fa0200009c
:020000040000fa
:04006800fa02000098
:020000040000fa
:04006c00fa02000094
:020000040000fa
:04007000fa02000090
:020000040000fa
:04007400fa0200008c
:020000040000fa
:04007800fa02000088
:020000040000fa
:04007c00fa02000084
:020000040000fa
:04008000fa02000080
:020000040000fa
:04008400fa0200007c
:020000040000fa
:04008800fa02000078
:020000040000fa
:04008c00fa02000074
:020000040000fa
:04009000fa02000070
:020000040000fa
:04009400fa0200006c
:020000040000fa
:04009800fa02000068
:020000040000fa
:04009c00fa02000064
:020000040000fa
:0400a000fa02000060
:020000040000fa
:0400a400fa0200005c
:020000040000fa
:0400a800fa02000058
:020000040000fa
:0400ac00fa02000054
:020000040000fa
:0400b000fa02000050
:020000040000fa
:0400b400fa0200004c
:020000040000fa
:0400b800fa02000048
:020000040000fa
:0400bc00fa02000044
:020000040000fa
:0400c000fa02000040
:020000040000fa
:0400c400fa0200003c
:020000040000fa
:0400c800fa02000038
:020000040000fa
:0400cc00fa02000034
:020000040000fa
:0400d000fa02000030
:020000040000fa
:0400d400fa0200002c
:020000040000fa
:0400d800fa02000028
:020000040000fa
:0400dc00fa02000024
:020000040000fa
:0400e000fa02000020
:020000040000fa
:0400e400fa0200001c
:020000040000fa
:0400e800fa02000018
:020000040000fa
:0400ec00fa02000014
:020000040000fa
:0400f000fa02000010
:020000040000fa
:0400f400fa0200000c
:020000040000fa
:0400f800fa02000008
:020000040000fa
:0400fc00fa02000004
:020000040000fa
:04010000fa020000ff
:020000040000fa
:04010400fa020000fb
:020000040000fa
:04010800fa020000f7
:020000040000fa
:04010c00fa020000f3
:020000040000fa
:04011000fa020000ef
:020000040000fa
:04011400fa020000eb
:020000040000fa
:04011800fa020000e7
:020000040000fa
:04011c00fa020000e3
:020000040000fa
:04012000fa020000df
:020000040000fa
:04012400fa020000db
:020000040000fa
:04012800fa020000d7
:020000040000fa
:04012c00fa020000d3
:020000040000fa
:04013000fa020000cf
:020000040000fa
:04013400fa020000cb
:020000040000fa
:04013800fa020000c7
:020000040000fa
:04013c00fa020000c3
:020000040000fa
:04014000fa020000bf
:020000040000fa
:04014400fa020000bb
:020000040000fa
:04014800fa020000b7
:020000040000fa
:04014c00fa020000b3
:020000040000fa
:04015000fa020000af
:020000040000fa
:04015400fa020000ab
:020000040000fa
:04015800fa020000a7
:020000040000fa
:04015c00fa020000a3
:020000040000fa
:04016000fa0200009f
:020000040000fa
:04016400fa0200009b
:020000040000fa
:04016800fa02000097
:020000040000fa
:04016c00fa02000093
:020000040000fa
:04017000fa0200008f
:020000040000fa
:04017400fa0200008b
:020000040000fa
:04017800fa02000087
:020000040000fa
:04017c00fa02000083
:020000040000fa
:04018000fa0200007f
:020000040000fa
:04018400fa0200007b
:020000040000fa
:04018800fa02000077
:020000040000fa
:04018c00fa02000073
:020000040000fa
:04019000fa0200006f
:020000040000fa
:04019400fa0200006b
:020000040000fa
:04019800fa02000067
:020000040000fa
:04019c00fa02000063
:020000040000fa
:0401a000fa0200005f
:020000040000fa
:0401a400fa0200005b
:020000040000fa
:0401a800fa02000057
:020000040000fa
:0401ac00fa02000053
:020000040000fa
:0401b000fa0200004f
:020000040000fa
:0401b400fa0200004b
:020000040000fa
:0401b800fa02000047
:020000040000fa
:0401bc00fa02000043
:020000040000fa
:0401c000fa0200003f
:020000040000fa
:0401c400fa0200003b
:020000040000fa
:0401c800fa02000037
:020000040000fa
:0401cc00fa02000033
:020000040000fa
:0401d000fa0200002f
:020000040000fa
:0401d400fa0200002b
:020000040000fa
:0401d800fa02000027
:020000040000fa
:0401dc00fa02000023
:020000040000fa
:0401e000fa0200001f
:020000040000fa
:0401e400fa0200001b
:020000040000fa
:0401e800fa02000017
:020000040000fa
:0401ec00fa02000013
:020000040000fa
:0401f000fa0200000f
:020000040000fa
:0401f400fa0200000b
:020000040000fa
:0401f800fa02000007
:020000040000fa
:0401fc00fa02000003
:020000040000fa
:04020000fa020000fe
:020000040000fa
:04020400fa020000fa
:020000040000fa
:04020800fa020000f6
:020000040000fa
:04020c00fa020000f2
:020000040000fa
:04021000fa020000ee
:020000040000fa
:04021400fa020000ea
:020000040000fa
:04021800fa020000e6
:020000040000fa
:04021c00fa020000e2
:020000040000fa
:04022000fa020000de
:020000040000fa
:04022400fa020000da
:020000040000fa
:04022800fa020000d6
:020000040000fa
:04022c00fa020000d2
:020000040000fa
:04023000fa020000ce
:020000040000fa
:04023400fa020000ca
:020000040000fa
:04023800fa020000c6
:020000040000fa
:04023c00fa020000c2
:020000040000fa
:04024000fa020000be
:020000040000fa
:04024400fa020000ba
:020000040000fa
:04024800fa020000b6
:020000040000fa
:04024c00fa020000b2
:020000040000fa
:04025000fa020000ae
:020000040000fa
:04025400fa020000aa
:020000040000fa
:04025800fa020000a6
:020000040000fa
:04025c00fa020000a2
:020000040000fa
:04026000fa0200009e
:020000040000fa
:04026400fa0200009a
:020000040000fa
:04026800fa02000096
:020000040000fa
:04026c00fa02000092
:020000040000fa
:04027000fa0200008e
:020000040000fa
:04027400fa0200008a
:020000040000fa
:04027800fa02000086
:020000040000fa
:04027c00fa02000082
:020000040000fa
:04028000fa0200007e
:020000040000fa
:04028400fa0200007a
:020000040000fa
:04028800fa02000076
:020000040000fa
:04028c00fa02000072
:020000040000fa
:04029000fa0200006e
:020000040000fa
:04029400fa0200006a
:020000040000fa
:04029800fa02000066
:020000040000fa
:04029c00fa02000062
:020000040000fa
:0402a000fa0200005e
:020000040000fa
:0402a400fa0200005a
:020000040000fa
:0402a800fa02000056
:020000040000fa
:0402ac00fa02000052
:020000040000fa
:0402b000fa0200004e
:020000040000fa
:0402b400fa0200004a
:020000040000fa
:0402b800fa02000046
:020000040000fa
:0402bc00fa02000042
:020000040000fa
:0402c000fa0200003e
:020000040000fa
:0402c400fa0200003a
:020000040000fa
:0402c800fa02000036
:020000040000fa
:0402cc00fa02000032
:020000040000fa
:0402d000fa0200002e
:020000040000fa
:0402d400fa0200002a
:020000040000fa
:0402d800fa02000026
:020000040000fa
:0402dc00fa02000022
:020000040000fa
:0402e000fa0200001e
:020000040000fa
:0402e400fa0200001a
:020000040000fa
:0402e800fa02000016
:020000040000fa
:0402ec00fa02000012
:020000040000fa
:0402f000fa0200000e
:020000040000fa
:0402f400fa0200000a
:020000040000fa
:0402f800fa02000006
:020000040000fa
:0402fc00fa02000002
:020000040000fa
:04030000fa020000fd
:020000040000fa
:04030400fa020000f9
:020000040000fa
:04030800fa020000f5
:020000040000fa
:04030c00fa020000f1
:020000040000fa
:04031000fa020000ed
:020000040000fa
:100400000f0821000eff24000e01880000000000ec
:10041000000020000000e000020032000001200087
:100420002002880014000700740007000000e000ac
:1004300003003a00407d2000010020000200370048
:100440000000200001002000810f70000100320038
:100450000f000700000020000000e0000200320052
:100460000000020000000000f20502000000000091
:100470000040da000000fe00200020000000e00044
:1004800002003200100020009001880000000600e9
:10049000a1028800800478000000eb001f003700f4
:1004a000e284440054a0b4009905ba00e2844400f8
:1004b00054a0b4009906ba00e284440054a0b400e9
:1004c0000006eb00476fde00fd07b200ae018800ba
:1004d000636ce10003003a000ad801000000eb0061
:1004e0000e003700606ce10008003a00004deb00a0
:1004f0000a05e800020039003420ec000af0a000f0
:100500008b05e900f9ff3e00040037006168e10057
:10051000010032000086eb000b00070019c7ba008b
:100520000e04e0001905ba0003003a000a00e000da
:10053000dbff3a0000000600fe07b200ae028800b2
:100540008a047800f5ff37000cd0a300e20f4d00bd
:100550001c00390089027800354dba000a05e80010
:10056000020039003420ec000af0a0008b05e900fd
:100570000f003200254dba000a05e80002003900dc
:100580003420ec000af0a0008b05e90008003200de
:100590000c00e0000600320015cdba000a05e800a4
:1005a000020039003420ec000af0a0008b05e900bd
:1005b0008984e80054a0b4000b00e000e2ff3a0098
:1005c000000006009902ba00055d78008b05e9007d
:1005d000f7ff3200c82ade00055d78008b05e900d0
:1005e000f3ff32000c00e000f1ff320019ddba0029
:1005f000eeff37000040da000000fe0000000500ba
:020000040000fa
:100600000800fa0040479800514798006247980058
:100610000000eb00000f780005003700800021008b
:100620001e00400001c8b300014878001e0fe8001a
:100630001e007800f70f5000f8ff340010c0b30020
:100640002047980070002000000f7800120037004b
:10065000ce4090002e40900000c060000004e000fa
:1006600005003200800021001e004000c1cfb30011
:100670000148780004003700800021001e0040007f
:1006800001c8b300014878002e40900000404000af
:10069000204798001e0fe9001e0078000000e000cf
:1006a000ebff3d0010c0b30020479800f000200091
:1006b000000f780012003700de4090002e409000be
:1006c00000c060000004e00005003200800021004e
:1006d0001e004000c1cfb30001487800040037007d
:1006e000800021001e00400001c8b30001487800ce
:1006f0002e40900000404000204798001e0fe90067
:100700001e007800e70f5000ebff3c0010c0b30064
:100710002047980070012000000f78001200370079
:10072000ee4090002e40900000c060000004e00009
:1007300005003200800021001e004000c1cfb30040
:100740000148780004003700800021001e004000ae
:1007500001c8b300014878002e40900000404000de
:10076000204798001e0fe9001e007800ef0f500090
:10077000ebff3c000000eb00000f780006003700a4
:10078000800021001e004000104078000080fb0027
:10079000401288001e0fe8001e007800e70f50008e
:1007a000f7ff34000000eb00000f78000100370075
:1007b0001e0fe8001e007800e90f5000fcff340017
:1007c00080002000000f7800060037008000210024
:1007d0001e004000104078000080fb00401288009e
:1007e0001e0fe8001e007800ef0f5000f7ff3400e6
:1007f0000000eb00000f7800010037001e0fe8003a
:100800001e007800e90f5000fcff340000012000ba
:10081000000f780006003700800021001e00400015
:10082000104078000080fb00401288001e0fe80096
:100830001e007800f70f5000f7ff34000080fa0028
:10084000000006000800fa002047980022079800e0
:10085000330798000000eb00000f78001900370004
:100860002e4090000080fb009e0f500010003a00c8
:100870002e009000004178002e009000be009000f5
:10088000c809dd004800de0000807100c808de00f5
:10089000804178002e009000be0090004008de00ed
:1008a000004078008340780055ff070004003700bf
:1008b0000041eb008040eb000040eb0050ff0700e0
:1008c0001e0fe8001e007800fb0f5000e4ff34000c
:1008d0000080fa00000006000000fa00222eef005f
:1008e000362eef000e2eef00152ea80028cea80001
:1008f00028eea800290ea800292ea800154ea80051
:10090000156ea800158ea80015aea800014ea8000f
:1009100000eea800000ea900002ea900140ea900e8
:10092000142ea9000080fa00000006000600fa005c
:100930001f2ea8001f4ea8001f6ea8001f8ea80023
:1009400032cea80032eea800330ea800332ea80045
:100950000000eb00000f78000000eb00000f7800b3
:100960009b0037001e0078000000e00006003a00ff
:1009700000eea900014ea90015aea90004eea800e2
:10098000054ea80019aea9001e007800e10f500026
:1009900006003a0000eea900014ea90015aea9001c
:1009a00004eea800054ea90019aea8001e007800ac
:1009b000e20f500006003a0000eea900014ea90027
:1009c00015aea90004eea900054ea80019aea800b6
:1009d000b07080004900de00614060008040780017
:1009e0001002210001487800507180004600de00ae
:1009f00061406000804078002002210001487800ba
:100a0000507180004700de00614060008040780047
:100a10003002210001487800507180004800de005b
:100a20006140600080407800400221000148780069
:100a3000507180004900de00614060008040780015
:100a40005002210001487800b07080004a00de00aa
:100a50006140600080407800600221000148780019
:100a6000b07080004b00de00614060008040780084
:100a70007002210001487800b07080004c00de0058
:100a800061406000804078008002210001487800c9
:100a90006000b80010079800210798004400370054
:100aa000110221001e0090000080400010407800dc
:100ab0000004e00016003a001e009000e300b900b8
:100ac000800078001e00780000804000000178005f
:100ad0001000200001002000820178008301e9005d
:100ae000030033000000400081804800fbff370016
:100af0000001be00008080001180800000007100b5
:100b000081807100008088001180880022003700f9
:100b10001e009000e300b900800078001e007800fd
:100b2000008040000001780010002000010020003b
:100b3000820178008301e9000300330000004000d7
:100b400081804800fbff37000080ea008180ea00d6
:100b50000001be0000808000118080000202780049
:100b60000301780080017800010078000302620030
:100b7000000061008000eb00c000dd0000002000ec
:100b80000001be006120b800000171008181710088
:100b900002808800138088001e009000ae00900044
:100ba00061004000e080480010079800210798008d
:100bb0001e019000ae019000700020000100200096
:100bc000800f5100818f5900b5ff36001e0fe800dd
:100bd0001e007800e20f500062ff34000080fa002f
:100be000000006000400fa00213a800000fe2f00f9
:100bf000008060003000b300203a8800213a800075
:100c0000000c200001007000203a8800313a80007a
:100c100000e02f0080806000e004200001007000f0
:100c2000303a8800146ea900150ea900a0c2b300c6
:100c3000d4e6b700154ea800156ea900012ea80035
:100c400001208000f08f2f000080600000a0a00035
:100c5000002088000000000001208000000e20001d
:100c60008080600000082000808f5000faff3a006a
:100c7000f0032000802088009120800080ff2f005a
:100c8000008060000000a00090208800912080007b
:100c900070fc2f00808060000003200001007000c5
:100ca0009020880091208000f08f2f0080806000cd
:100cb00000502000010070009020880012e4a8007d
:100cc0000004a90001cba90001aba80001588000d5
:100cd000f0fc2f00008060000050a0000058880049
:100ce00001588000c0ff2f0000806000005888007d
:100cf00060042000105888007000200070588800a0
:100d000020442000605888000004210020588800fa
:100d1000000421003058880001eba80030e4a8004e
:100d2000802180003000b3008021880001208000f5
:100d3000f08f2f000080600000208800000000007d
:100d400001208000000e2000008060000000e00014
:100d5000fbff3a000000eb00008288000000eb007f
:100d6000108288004000200020828800a0a020007f
:100d700030828800a0102000408288000000eb0034
:100d80005082880042a2a8001112800030fe2f007d
:100d9000008060004001b300101288004302a800e8
:100da000101280003000b300101288004342a900e6
:100db0004402a80041e2a800c7fe07000100370076
:100dc00000000000d9fe07002280800033808000f0
:100dd0000080800011808000800f5100818f5900b9
:100de000f7ff32006000b800008fbe0062003700dd
:100df0001e01780010002000010020008201780010
:100e00008301e900030033000000400081804800b6
:100e1000fbff37000001be000080800011808000d1
:100e20000202780003017800800178000100780058
:100e300003026200000061008000eb00c000dd00e2
:100e4000000020000001be006120b8000001710018
:100e500081817100e00f5100e08f590024003200c1
:100e60001e0078000040780002002000030a2000e5
:100e700074fe07001e0078009e009000e00f5000f6
:100e8000e08f580001003a00040ea8001e0178000f
:100e90009e0190001000200001002000800f5100f2
:100ea000818f590001003a00042ea8001e0178002d
:100eb0009e0190002000200001002000800f5100c2
:100ec000818f590001003a00180ea8001e01780019
:100ed0009e0190003000200001002000800f510092
:100ee000818f590020003a00182ea8001e003700fc
:100ef0001e0078009e009000e00f5000e08f580028
:100f000001003a00040ea9001e0178009e01900025
:100f10001000200001002000800f5100818f590037
:100f200001003a00042ea9001e0178009e019000e5
:100f30002000200001002000800f5100818f590007
:100f400001003a00180ea9001e0178009e019000d1
:100f50003000200001002000800f5100818f5900d7
:100f600001003a00182ea900120020000300200002
:100f70001e0f41005e9749001e0178009e019000ff
:100f8000b001200001002000800f5100818f590026
:100f900097ff34000080800011808000208088004e
:080fa0003180880087ff370053
:020000040000fa
:100fa800081000002200000080000000401000002f
:100fb8004000000080000000001000000800000051
:080fc8008000000000000000a1
:020000040000fa
:020000040005f5
:04570000ffff0000a7
:020000040000fa
:020000040005f5
:04572000ffff000087
:020000040000fa
:020000040005f5
:045730007bff0000fb
:020000040000fa
:020000040005f5
:045738001eff000050
:020000040000fa
:020000040005f5
:04574000dfff000087
:020000040000fa
:020000040005f5
:04574800feff000060
:020000040000fa
:020000040005f5
:04575000ffff000057
:020000040000fa
:020000040005f5
:04575800ffff00004f
:020000040000fa
:020000040005f5
:04576000ffff000047
:020000040000fa
:020000040005f5
:04576800ffff00003f
:020000040000fa
:020000040005f5
:04577000ffff000037
:020000040000fa
:020000040005f5
:04577800ffff00002f
:020000040000fa
:020000040005f5
:04578000ffff000027
:020000040000fa
:020000040005f5
:04578800ffff00001f
:00000001FF
